{
    "_format": "hh-sol-artifact-1",
    "contractName": "Token",
    "sourceName": "contracts/Token.sol",
    "abi": [
        {
            "inputs": [
                {
                    "internalType": "address",
                    "name": "account",
                    "type": "address"
                }
            ],
            "stateMutability": "nonpayable",
            "type": "constructor"
        },
        {
            "anonymous": false,
            "inputs": [
                {
                    "indexed": true,
                    "internalType": "address",
                    "name": "owner",
                    "type": "address"
                },
                {
                    "indexed": true,
                    "internalType": "address",
                    "name": "spender",
                    "type": "address"
                },
                {
                    "indexed": false,
                    "internalType": "uint256",
                    "name": "amount",
                    "type": "uint256"
                }
            ],
            "name": "Approval",
            "type": "event"
        },
        {
            "anonymous": false,
            "inputs": [
                {
                    "indexed": true,
                    "internalType": "address",
                    "name": "delegator",
                    "type": "address"
                },
                {
                    "indexed": true,
                    "internalType": "address",
                    "name": "fromDelegate",
                    "type": "address"
                },
                {
                    "indexed": true,
                    "internalType": "address",
                    "name": "toDelegate",
                    "type": "address"
                }
            ],
            "name": "DelegateChanged",
            "type": "event"
        },
        {
            "anonymous": false,
            "inputs": [
                {
                    "indexed": true,
                    "internalType": "address",
                    "name": "delegate",
                    "type": "address"
                },
                {
                    "indexed": false,
                    "internalType": "uint256",
                    "name": "previousBalance",
                    "type": "uint256"
                },
                {
                    "indexed": false,
                    "internalType": "uint256",
                    "name": "newBalance",
                    "type": "uint256"
                }
            ],
            "name": "DelegateVotesChanged",
            "type": "event"
        },
        {
            "anonymous": false,
            "inputs": [
                {
                    "indexed": true,
                    "internalType": "address",
                    "name": "from",
                    "type": "address"
                },
                {
                    "indexed": true,
                    "internalType": "address",
                    "name": "to",
                    "type": "address"
                },
                {
                    "indexed": false,
                    "internalType": "uint256",
                    "name": "amount",
                    "type": "uint256"
                }
            ],
            "name": "Transfer",
            "type": "event"
        },
        {
            "inputs": [],
            "name": "DELEGATION_TYPEHASH",
            "outputs": [
                {
                    "internalType": "bytes32",
                    "name": "",
                    "type": "bytes32"
                }
            ],
            "stateMutability": "view",
            "type": "function"
        },
        {
            "inputs": [],
            "name": "DOMAIN_TYPEHASH",
            "outputs": [
                {
                    "internalType": "bytes32",
                    "name": "",
                    "type": "bytes32"
                }
            ],
            "stateMutability": "view",
            "type": "function"
        },
        {
            "inputs": [
                {
                    "internalType": "address",
                    "name": "account",
                    "type": "address"
                },
                {
                    "internalType": "address",
                    "name": "spender",
                    "type": "address"
                }
            ],
            "name": "allowance",
            "outputs": [
                {
                    "internalType": "uint256",
                    "name": "",
                    "type": "uint256"
                }
            ],
            "stateMutability": "view",
            "type": "function"
        },
        {
            "inputs": [
                {
                    "internalType": "address",
                    "name": "spender",
                    "type": "address"
                },
                {
                    "internalType": "uint256",
                    "name": "rawAmount",
                    "type": "uint256"
                }
            ],
            "name": "approve",
            "outputs": [
                {
                    "internalType": "bool",
                    "name": "",
                    "type": "bool"
                }
            ],
            "stateMutability": "nonpayable",
            "type": "function"
        },
        {
            "inputs": [
                {
                    "internalType": "address",
                    "name": "account",
                    "type": "address"
                }
            ],
            "name": "balanceOf",
            "outputs": [
                {
                    "internalType": "uint256",
                    "name": "",
                    "type": "uint256"
                }
            ],
            "stateMutability": "view",
            "type": "function"
        },
        {
            "inputs": [
                {
                    "internalType": "address",
                    "name": "",
                    "type": "address"
                },
                {
                    "internalType": "uint32",
                    "name": "",
                    "type": "uint32"
                }
            ],
            "name": "checkpoints",
            "outputs": [
                {
                    "internalType": "uint32",
                    "name": "fromTimeStamp",
                    "type": "uint32"
                },
                {
                    "internalType": "uint96",
                    "name": "votes",
                    "type": "uint96"
                }
            ],
            "stateMutability": "view",
            "type": "function"
        },
        {
            "inputs": [],
            "name": "decimals",
            "outputs": [
                {
                    "internalType": "uint8",
                    "name": "",
                    "type": "uint8"
                }
            ],
            "stateMutability": "view",
            "type": "function"
        },
        {
            "inputs": [
                {
                    "internalType": "address",
                    "name": "delegatee",
                    "type": "address"
                }
            ],
            "name": "delegate",
            "outputs": [],
            "stateMutability": "nonpayable",
            "type": "function"
        },
        {
            "inputs": [
                {
                    "internalType": "address",
                    "name": "delegatee",
                    "type": "address"
                },
                {
                    "internalType": "uint256",
                    "name": "nonce",
                    "type": "uint256"
                },
                {
                    "internalType": "uint256",
                    "name": "expiry",
                    "type": "uint256"
                },
                {
                    "internalType": "uint8",
                    "name": "v",
                    "type": "uint8"
                },
                {
                    "internalType": "bytes32",
                    "name": "r",
                    "type": "bytes32"
                },
                {
                    "internalType": "bytes32",
                    "name": "s",
                    "type": "bytes32"
                }
            ],
            "name": "delegateBySig",
            "outputs": [],
            "stateMutability": "nonpayable",
            "type": "function"
        },
        {
            "inputs": [
                {
                    "internalType": "address",
                    "name": "",
                    "type": "address"
                }
            ],
            "name": "delegates",
            "outputs": [
                {
                    "internalType": "address",
                    "name": "",
                    "type": "address"
                }
            ],
            "stateMutability": "view",
            "type": "function"
        },
        {
            "inputs": [
                {
                    "internalType": "address",
                    "name": "account",
                    "type": "address"
                }
            ],
            "name": "getCurrentVotes",
            "outputs": [
                {
                    "internalType": "uint96",
                    "name": "",
                    "type": "uint96"
                }
            ],
            "stateMutability": "view",
            "type": "function"
        },
        {
            "inputs": [
                {
                    "internalType": "address",
                    "name": "account",
                    "type": "address"
                },
                {
                    "internalType": "uint32",
                    "name": "timeStamp",
                    "type": "uint32"
                }
            ],
            "name": "getPriorVotes",
            "outputs": [
                {
                    "internalType": "uint96",
                    "name": "",
                    "type": "uint96"
                }
            ],
            "stateMutability": "view",
            "type": "function"
        },
        {
            "inputs": [],
            "name": "name",
            "outputs": [
                {
                    "internalType": "string",
                    "name": "",
                    "type": "string"
                }
            ],
            "stateMutability": "view",
            "type": "function"
        },
        {
            "inputs": [
                {
                    "internalType": "address",
                    "name": "",
                    "type": "address"
                }
            ],
            "name": "nonces",
            "outputs": [
                {
                    "internalType": "uint256",
                    "name": "",
                    "type": "uint256"
                }
            ],
            "stateMutability": "view",
            "type": "function"
        },
        {
            "inputs": [
                {
                    "internalType": "address",
                    "name": "",
                    "type": "address"
                }
            ],
            "name": "numCheckpoints",
            "outputs": [
                {
                    "internalType": "uint32",
                    "name": "",
                    "type": "uint32"
                }
            ],
            "stateMutability": "view",
            "type": "function"
        },
        {
            "inputs": [],
            "name": "symbol",
            "outputs": [
                {
                    "internalType": "string",
                    "name": "",
                    "type": "string"
                }
            ],
            "stateMutability": "view",
            "type": "function"
        },
        {
            "inputs": [],
            "name": "totalSupply",
            "outputs": [
                {
                    "internalType": "uint256",
                    "name": "",
                    "type": "uint256"
                }
            ],
            "stateMutability": "view",
            "type": "function"
        },
        {
            "inputs": [
                {
                    "internalType": "address",
                    "name": "dst",
                    "type": "address"
                },
                {
                    "internalType": "uint256",
                    "name": "rawAmount",
                    "type": "uint256"
                }
            ],
            "name": "transfer",
            "outputs": [
                {
                    "internalType": "bool",
                    "name": "",
                    "type": "bool"
                }
            ],
            "stateMutability": "nonpayable",
            "type": "function"
        },
        {
            "inputs": [
                {
                    "internalType": "address",
                    "name": "src",
                    "type": "address"
                },
                {
                    "internalType": "address",
                    "name": "dst",
                    "type": "address"
                },
                {
                    "internalType": "uint256",
                    "name": "rawAmount",
                    "type": "uint256"
                }
            ],
            "name": "transferFrom",
            "outputs": [
                {
                    "internalType": "bool",
                    "name": "",
                    "type": "bool"
                }
            ],
            "stateMutability": "nonpayable",
            "type": "function"
        }
    ],
    "bytecode": "0x60806040523480156200001157600080fd5b50604051620030ae380380620030ae833981810160405281019062000037919062000194565b6a084595161401484a000000600160008373ffffffffffffffffffffffffffffffffffffffff1673ffffffffffffffffffffffffffffffffffffffff16815260200190815260200160002060006101000a8154816bffffffffffffffffffffffff02191690836bffffffffffffffffffffffff1602179055508073ffffffffffffffffffffffffffffffffffffffff16600073ffffffffffffffffffffffffffffffffffffffff167fddf252ad1be2c89b69c2b068fc378daa952ba7f163c4a11628f55a4df523b3ef6a084595161401484a0000006040516200011b9190620001e1565b60405180910390a350620001fe565b600080fd5b600073ffffffffffffffffffffffffffffffffffffffff82169050919050565b60006200015c826200012f565b9050919050565b6200016e816200014f565b81146200017a57600080fd5b50565b6000815190506200018e8162000163565b92915050565b600060208284031215620001ad57620001ac6200012a565b5b6000620001bd848285016200017d565b91505092915050565b6000819050919050565b620001db81620001c6565b82525050565b6000602082019050620001f86000830184620001d0565b92915050565b612ea0806200020e6000396000f3fe608060405234801561001057600080fd5b50600436106101215760003560e01c806370a08231116100ad578063c3cda52011610071578063c3cda52014610358578063dd62ed3e14610374578063dd725dc3146103a4578063e7a324dc146103d4578063f1127ed8146103f257610121565b806370a082311461027a5780637ecebe00146102aa57806395d89b41146102da578063a9059cbb146102f8578063b4b5ea571461032857610121565b806323b872dd116100f457806323b872dd146101b0578063313ce567146101e0578063587cde1e146101fe5780635c19a95c1461022e5780636fcfff451461024a57610121565b806306fdde0314610126578063095ea7b31461014457806318160ddd1461017457806320606b7014610192575b600080fd5b61012e610423565b60405161013b919061211b565b60405180910390f35b61015e600480360381019061015991906121d6565b61045c565b60405161016b9190612231565b60405180910390f35b61017c6105d9565b604051610189919061225b565b60405180910390f35b61019a6105e8565b6040516101a7919061228f565b60405180910390f35b6101ca60048036038101906101c591906122aa565b61060c565b6040516101d79190612231565b60405180910390f35b6101e861087e565b6040516101f59190612319565b60405180910390f35b61021860048036038101906102139190612334565b610883565b6040516102259190612370565b60405180910390f35b61024860048036038101906102439190612334565b6108b6565b005b610264600480360381019061025f9190612334565b6108c3565b60405161027191906123aa565b60405180910390f35b610294600480360381019061028f9190612334565b6108e6565b6040516102a1919061225b565b60405180910390f35b6102c460048036038101906102bf9190612334565b610955565b6040516102d1919061225b565b60405180910390f35b6102e261096d565b6040516102ef919061211b565b60405180910390f35b610312600480360381019061030d91906121d6565b6109a6565b60405161031f9190612231565b60405180910390f35b610342600480360381019061033d9190612334565b6109e3565b60405161034f91906123ec565b60405180910390f35b610372600480360381019061036d919061245f565b610ada565b005b61038e600480360381019061038991906124ec565b610d9c565b60405161039b919061225b565b60405180910390f35b6103be60048036038101906103b99190612558565b610e48565b6040516103cb91906123ec565b60405180910390f35b6103dc6112a0565b6040516103e9919061228f565b60405180910390f35b61040c60048036038101906104079190612558565b6112c4565b60405161041a929190612598565b60405180910390f35b6040518060400160405280600e81526020017f536e617073686f7420746f6b656e00000000000000000000000000000000000081525081565b6000807fffffffffffffffffffffffffffffffffffffffffffffffffffffffffffffffff830361049a576bffffffffffffffffffffffff90506104bf565b6104bc83604051806060016040528060268152602001612d986026913961131d565b90505b806000803373ffffffffffffffffffffffffffffffffffffffff1673ffffffffffffffffffffffffffffffffffffffff16815260200190815260200160002060008673ffffffffffffffffffffffffffffffffffffffff1673ffffffffffffffffffffffffffffffffffffffff16815260200190815260200160002060006101000a8154816bffffffffffffffffffffffff02191690836bffffffffffffffffffffffff1602179055508373ffffffffffffffffffffffffffffffffffffffff163373ffffffffffffffffffffffffffffffffffffffff167f8c5be1e5ebec7d5bd14f71427d1e84f3dd0314c0f7b2291e5b200ac8c7c3b925836040516105c691906125fc565b60405180910390a3600191505092915050565b6a084595161401484a00000081565b7f8cad95687ba82c2ce50e74f7b754645e5117c3a5bec8151c0726d5857980a86681565b60008033905060008060008773ffffffffffffffffffffffffffffffffffffffff1673ffffffffffffffffffffffffffffffffffffffff16815260200190815260200160002060008373ffffffffffffffffffffffffffffffffffffffff1673ffffffffffffffffffffffffffffffffffffffff16815260200190815260200160002060009054906101000a90046bffffffffffffffffffffffff16905060006106ce85604051806060016040528060268152602001612d986026913961131d565b90508673ffffffffffffffffffffffffffffffffffffffff168373ffffffffffffffffffffffffffffffffffffffff161415801561072857506bffffffffffffffffffffffff8016826bffffffffffffffffffffffff1614155b1561086557600061075283836040518060600160405280603e8152602001612d29603e913961137b565b9050806000808a73ffffffffffffffffffffffffffffffffffffffff1673ffffffffffffffffffffffffffffffffffffffff16815260200190815260200160002060008673ffffffffffffffffffffffffffffffffffffffff1673ffffffffffffffffffffffffffffffffffffffff16815260200190815260200160002060006101000a8154816bffffffffffffffffffffffff02191690836bffffffffffffffffffffffff1602179055508373ffffffffffffffffffffffffffffffffffffffff168873ffffffffffffffffffffffffffffffffffffffff167f8c5be1e5ebec7d5bd14f71427d1e84f3dd0314c0f7b2291e5b200ac8c7c3b9258360405161085b91906125fc565b60405180910390a3505b6108708787836113f5565b600193505050509392505050565b601281565b60026020528060005260406000206000915054906101000a900473ffffffffffffffffffffffffffffffffffffffff1681565b6108c033826117d4565b50565b60046020528060005260406000206000915054906101000a900463ffffffff1681565b6000600160008373ffffffffffffffffffffffffffffffffffffffff1673ffffffffffffffffffffffffffffffffffffffff16815260200190815260200160002060009054906101000a90046bffffffffffffffffffffffff166bffffffffffffffffffffffff169050919050565b60056020528060005260406000206000915090505481565b6040518060400160405280600381526020017f53746e000000000000000000000000000000000000000000000000000000000081525081565b6000806109cb83604051806060016040528060278152602001612e446027913961131d565b90506109d83385836113f5565b600191505092915050565b600080600460008473ffffffffffffffffffffffffffffffffffffffff1673ffffffffffffffffffffffffffffffffffffffff16815260200190815260200160002060009054906101000a900463ffffffff16905060008163ffffffff1611610a4d576000610ad2565b600360008473ffffffffffffffffffffffffffffffffffffffff1673ffffffffffffffffffffffffffffffffffffffff1681526020019081526020016000206000600183610a9b9190612646565b63ffffffff1663ffffffff16815260200190815260200160002060000160049054906101000a90046bffffffffffffffffffffffff165b915050919050565b60007f8cad95687ba82c2ce50e74f7b754645e5117c3a5bec8151c0726d5857980a8666040518060400160405280600e81526020017f536e617073686f7420746f6b656e00000000000000000000000000000000000081525080519060200120610b42611994565b30604051602001610b56949392919061267e565b60405160208183030381529060405280519060200120905060007fe48329057bfd03d55e49b547132e39cffd9c1820ad7b9d4c5307691425d15adf888888604051602001610ba794939291906126c3565b60405160208183030381529060405280519060200120905060008282604051602001610bd4929190612780565b604051602081830303815290604052805190602001209050600060018288888860405160008152602001604052604051610c1194939291906127b7565b6020604051602081039080840390855afa158015610c33573d6000803e3d6000fd5b505050602060405103519050600073ffffffffffffffffffffffffffffffffffffffff168173ffffffffffffffffffffffffffffffffffffffff1603610cae576040517f08c379a0000000000000000000000000000000000000000000000000000000008152600401610ca59061286e565b60405180910390fd5b600560008273ffffffffffffffffffffffffffffffffffffffff1673ffffffffffffffffffffffffffffffffffffffff1681526020019081526020016000206000815480929190610cfe9061288e565b919050558914610d43576040517f08c379a0000000000000000000000000000000000000000000000000000000008152600401610d3a90612948565b60405180910390fd5b87421115610d86576040517f08c379a0000000000000000000000000000000000000000000000000000000008152600401610d7d906129da565b60405180910390fd5b610d90818b6117d4565b50505050505050505050565b60008060008473ffffffffffffffffffffffffffffffffffffffff1673ffffffffffffffffffffffffffffffffffffffff16815260200190815260200160002060008373ffffffffffffffffffffffffffffffffffffffff1673ffffffffffffffffffffffffffffffffffffffff16815260200190815260200160002060009054906101000a90046bffffffffffffffffffffffff166bffffffffffffffffffffffff16905092915050565b6000428263ffffffff161115610e93576040517f08c379a0000000000000000000000000000000000000000000000000000000008152600401610e8a90612a6c565b60405180910390fd5b6000600460008573ffffffffffffffffffffffffffffffffffffffff1673ffffffffffffffffffffffffffffffffffffffff16815260200190815260200160002060009054906101000a900463ffffffff16905060008163ffffffff1603610eff57600091505061129a565b8263ffffffff16600360008673ffffffffffffffffffffffffffffffffffffffff1673ffffffffffffffffffffffffffffffffffffffff1681526020019081526020016000206000600184610f549190612646565b63ffffffff1663ffffffff16815260200190815260200160002060000160009054906101000a900463ffffffff1663ffffffff161161101957600360008573ffffffffffffffffffffffffffffffffffffffff1673ffffffffffffffffffffffffffffffffffffffff1681526020019081526020016000206000600183610fdb9190612646565b63ffffffff1663ffffffff16815260200190815260200160002060000160049054906101000a90046bffffffffffffffffffffffff1691505061129a565b8263ffffffff16600360008673ffffffffffffffffffffffffffffffffffffffff1673ffffffffffffffffffffffffffffffffffffffff16815260200190815260200160002060008063ffffffff16815260200190815260200160002060000160009054906101000a900463ffffffff1663ffffffff1611156110a057600091505061129a565b6000806001836110b09190612646565b90505b8163ffffffff168163ffffffff16111561121c576000600283836110d79190612646565b6110e19190612abb565b826110ec9190612646565b90506000600360008973ffffffffffffffffffffffffffffffffffffffff1673ffffffffffffffffffffffffffffffffffffffff16815260200190815260200160002060008363ffffffff1663ffffffff1681526020019081526020016000206040518060400160405290816000820160009054906101000a900463ffffffff1663ffffffff1663ffffffff1681526020016000820160049054906101000a90046bffffffffffffffffffffffff166bffffffffffffffffffffffff166bffffffffffffffffffffffff168152505090508663ffffffff16816000015163ffffffff16036111e55780602001519550505050505061129a565b8663ffffffff16816000015163ffffffff16101561120557819350611215565b6001826112129190612646565b92505b50506110b3565b600360008773ffffffffffffffffffffffffffffffffffffffff1673ffffffffffffffffffffffffffffffffffffffff16815260200190815260200160002060008363ffffffff1663ffffffff16815260200190815260200160002060000160049054906101000a90046bffffffffffffffffffffffff1693505050505b92915050565b7fe48329057bfd03d55e49b547132e39cffd9c1820ad7b9d4c5307691425d15adf81565b6003602052816000526040600020602052806000526040600020600091509150508060000160009054906101000a900463ffffffff16908060000160049054906101000a90046bffffffffffffffffffffffff16905082565b60006c0100000000000000000000000083108290611371576040517f08c379a0000000000000000000000000000000000000000000000000000000008152600401611368919061211b565b60405180910390fd5b5082905092915050565b6000836bffffffffffffffffffffffff16836bffffffffffffffffffffffff16111582906113df576040517f08c379a00000000000000000000000000000000000000000000000000000000081526004016113d6919061211b565b60405180910390fd5b5082846113ec9190612aec565b90509392505050565b600073ffffffffffffffffffffffffffffffffffffffff168373ffffffffffffffffffffffffffffffffffffffff1603611464576040517f08c379a000000000000000000000000000000000000000000000000000000000815260040161145b90612b9e565b60405180910390fd5b600073ffffffffffffffffffffffffffffffffffffffff168273ffffffffffffffffffffffffffffffffffffffff16036114d3576040517f08c379a00000000000000000000000000000000000000000000000000000000081526004016114ca90612c30565b60405180910390fd5b61154d600160008573ffffffffffffffffffffffffffffffffffffffff1673ffffffffffffffffffffffffffffffffffffffff16815260200190815260200160002060009054906101000a90046bffffffffffffffffffffffff1682604051806060016040528060378152602001612cf26037913961137b565b600160008573ffffffffffffffffffffffffffffffffffffffff1673ffffffffffffffffffffffffffffffffffffffff16815260200190815260200160002060006101000a8154816bffffffffffffffffffffffff02191690836bffffffffffffffffffffffff160217905550611634600160008473ffffffffffffffffffffffffffffffffffffffff1673ffffffffffffffffffffffffffffffffffffffff16815260200190815260200160002060009054906101000a90046bffffffffffffffffffffffff1682604051806060016040528060318152602001612d67603191396119a1565b600160008473ffffffffffffffffffffffffffffffffffffffff1673ffffffffffffffffffffffffffffffffffffffff16815260200190815260200160002060006101000a8154816bffffffffffffffffffffffff02191690836bffffffffffffffffffffffff1602179055508173ffffffffffffffffffffffffffffffffffffffff168373ffffffffffffffffffffffffffffffffffffffff167fddf252ad1be2c89b69c2b068fc378daa952ba7f163c4a11628f55a4df523b3ef836040516116fe91906125fc565b60405180910390a36117cf600260008573ffffffffffffffffffffffffffffffffffffffff1673ffffffffffffffffffffffffffffffffffffffff16815260200190815260200160002060009054906101000a900473ffffffffffffffffffffffffffffffffffffffff16600260008573ffffffffffffffffffffffffffffffffffffffff1673ffffffffffffffffffffffffffffffffffffffff16815260200190815260200160002060009054906101000a900473ffffffffffffffffffffffffffffffffffffffff1683611a20565b505050565b6000600260008473ffffffffffffffffffffffffffffffffffffffff1673ffffffffffffffffffffffffffffffffffffffff16815260200190815260200160002060009054906101000a900473ffffffffffffffffffffffffffffffffffffffff1690506000600160008573ffffffffffffffffffffffffffffffffffffffff1673ffffffffffffffffffffffffffffffffffffffff16815260200190815260200160002060009054906101000a90046bffffffffffffffffffffffff16905082600260008673ffffffffffffffffffffffffffffffffffffffff1673ffffffffffffffffffffffffffffffffffffffff16815260200190815260200160002060006101000a81548173ffffffffffffffffffffffffffffffffffffffff021916908373ffffffffffffffffffffffffffffffffffffffff1602179055508273ffffffffffffffffffffffffffffffffffffffff168273ffffffffffffffffffffffffffffffffffffffff168573ffffffffffffffffffffffffffffffffffffffff167f3134e8a2e6d97e929a7e54011ea5485d7d196dd5f0ba4d4ef95803e8e3fc257f60405160405180910390a461198e828483611a20565b50505050565b6000804690508091505090565b60008083856119b09190612c50565b9050846bffffffffffffffffffffffff16816bffffffffffffffffffffffff1610158390611a14576040517f08c379a0000000000000000000000000000000000000000000000000000000008152600401611a0b919061211b565b60405180910390fd5b50809150509392505050565b8173ffffffffffffffffffffffffffffffffffffffff168373ffffffffffffffffffffffffffffffffffffffff1614158015611a6a57506000816bffffffffffffffffffffffff16115b15611d2857600073ffffffffffffffffffffffffffffffffffffffff168373ffffffffffffffffffffffffffffffffffffffff1614611bcb576000600460008573ffffffffffffffffffffffffffffffffffffffff1673ffffffffffffffffffffffffffffffffffffffff16815260200190815260200160002060009054906101000a900463ffffffff1690506000808263ffffffff1611611b0d576000611b92565b600360008673ffffffffffffffffffffffffffffffffffffffff1673ffffffffffffffffffffffffffffffffffffffff1681526020019081526020016000206000600184611b5b9190612646565b63ffffffff1663ffffffff16815260200190815260200160002060000160049054906101000a90046bffffffffffffffffffffffff165b90506000611bb98285604051806060016040528060298152602001612df36029913961137b565b9050611bc786848484611d2d565b5050505b600073ffffffffffffffffffffffffffffffffffffffff168273ffffffffffffffffffffffffffffffffffffffff1614611d27576000600460008473ffffffffffffffffffffffffffffffffffffffff1673ffffffffffffffffffffffffffffffffffffffff16815260200190815260200160002060009054906101000a900463ffffffff1690506000808263ffffffff1611611c69576000611cee565b600360008573ffffffffffffffffffffffffffffffffffffffff1673ffffffffffffffffffffffffffffffffffffffff1681526020019081526020016000206000600184611cb79190612646565b63ffffffff1663ffffffff16815260200190815260200160002060000160049054906101000a90046bffffffffffffffffffffffff165b90506000611d158285604051806060016040528060288152602001612e1c602891396119a1565b9050611d2385848484611d2d565b5050505b5b505050565b6000611d5142604051806060016040528060358152602001612dbe60359139612035565b905060008463ffffffff16118015611de9575042600360008773ffffffffffffffffffffffffffffffffffffffff1673ffffffffffffffffffffffffffffffffffffffff1681526020019081526020016000206000600187611db39190612646565b63ffffffff1663ffffffff16815260200190815260200160002060000160009054906101000a900463ffffffff1663ffffffff16145b15611e8d5781600360008773ffffffffffffffffffffffffffffffffffffffff1673ffffffffffffffffffffffffffffffffffffffff1681526020019081526020016000206000600187611e3d9190612646565b63ffffffff1663ffffffff16815260200190815260200160002060000160046101000a8154816bffffffffffffffffffffffff02191690836bffffffffffffffffffffffff160217905550611fde565b60405180604001604052808263ffffffff168152602001836bffffffffffffffffffffffff16815250600360008773ffffffffffffffffffffffffffffffffffffffff1673ffffffffffffffffffffffffffffffffffffffff16815260200190815260200160002060008663ffffffff1663ffffffff16815260200190815260200160002060008201518160000160006101000a81548163ffffffff021916908363ffffffff16021790555060208201518160000160046101000a8154816bffffffffffffffffffffffff02191690836bffffffffffffffffffffffff160217905550905050600184611f809190612c90565b600460008773ffffffffffffffffffffffffffffffffffffffff1673ffffffffffffffffffffffffffffffffffffffff16815260200190815260200160002060006101000a81548163ffffffff021916908363ffffffff1602179055505b8473ffffffffffffffffffffffffffffffffffffffff167fdec2bacdd2f05b59de34da9b523dff8be42e5e38e818c82fdb0bae774387a7248484604051612026929190612cc8565b60405180910390a25050505050565b600064010000000083108290612081576040517f08c379a0000000000000000000000000000000000000000000000000000000008152600401612078919061211b565b60405180910390fd5b5082905092915050565b600081519050919050565b600082825260208201905092915050565b60005b838110156120c55780820151818401526020810190506120aa565b60008484015250505050565b6000601f19601f8301169050919050565b60006120ed8261208b565b6120f78185612096565b93506121078185602086016120a7565b612110816120d1565b840191505092915050565b6000602082019050818103600083015261213581846120e2565b905092915050565b600080fd5b600073ffffffffffffffffffffffffffffffffffffffff82169050919050565b600061216d82612142565b9050919050565b61217d81612162565b811461218857600080fd5b50565b60008135905061219a81612174565b92915050565b6000819050919050565b6121b3816121a0565b81146121be57600080fd5b50565b6000813590506121d0816121aa565b92915050565b600080604083850312156121ed576121ec61213d565b5b60006121fb8582860161218b565b925050602061220c858286016121c1565b9150509250929050565b60008115159050919050565b61222b81612216565b82525050565b60006020820190506122466000830184612222565b92915050565b612255816121a0565b82525050565b6000602082019050612270600083018461224c565b92915050565b6000819050919050565b61228981612276565b82525050565b60006020820190506122a46000830184612280565b92915050565b6000806000606084860312156122c3576122c261213d565b5b60006122d18682870161218b565b93505060206122e28682870161218b565b92505060406122f3868287016121c1565b9150509250925092565b600060ff82169050919050565b612313816122fd565b82525050565b600060208201905061232e600083018461230a565b92915050565b60006020828403121561234a5761234961213d565b5b60006123588482850161218b565b91505092915050565b61236a81612162565b82525050565b60006020820190506123856000830184612361565b92915050565b600063ffffffff82169050919050565b6123a48161238b565b82525050565b60006020820190506123bf600083018461239b565b92915050565b60006bffffffffffffffffffffffff82169050919050565b6123e6816123c5565b82525050565b600060208201905061240160008301846123dd565b92915050565b612410816122fd565b811461241b57600080fd5b50565b60008135905061242d81612407565b92915050565b61243c81612276565b811461244757600080fd5b50565b60008135905061245981612433565b92915050565b60008060008060008060c0878903121561247c5761247b61213d565b5b600061248a89828a0161218b565b965050602061249b89828a016121c1565b95505060406124ac89828a016121c1565b94505060606124bd89828a0161241e565b93505060806124ce89828a0161244a565b92505060a06124df89828a0161244a565b9150509295509295509295565b600080604083850312156125035761250261213d565b5b60006125118582860161218b565b92505060206125228582860161218b565b9150509250929050565b6125358161238b565b811461254057600080fd5b50565b6000813590506125528161252c565b92915050565b6000806040838503121561256f5761256e61213d565b5b600061257d8582860161218b565b925050602061258e85828601612543565b9150509250929050565b60006040820190506125ad600083018561239b565b6125ba60208301846123dd565b9392505050565b6000819050919050565b60006125e66125e16125dc846123c5565b6125c1565b6121a0565b9050919050565b6125f6816125cb565b82525050565b600060208201905061261160008301846125ed565b92915050565b7f4e487b7100000000000000000000000000000000000000000000000000000000600052601160045260246000fd5b60006126518261238b565b915061265c8361238b565b9250828203905063ffffffff81111561267857612677612617565b5b92915050565b60006080820190506126936000830187612280565b6126a06020830186612280565b6126ad604083018561224c565b6126ba6060830184612361565b95945050505050565b60006080820190506126d86000830187612280565b6126e56020830186612361565b6126f2604083018561224c565b6126ff606083018461224c565b95945050505050565b600081905092915050565b7f1901000000000000000000000000000000000000000000000000000000000000600082015250565b6000612749600283612708565b915061275482612713565b600282019050919050565b6000819050919050565b61277a61277582612276565b61275f565b82525050565b600061278b8261273c565b91506127978285612769565b6020820191506127a78284612769565b6020820191508190509392505050565b60006080820190506127cc6000830187612280565b6127d9602083018661230a565b6127e66040830185612280565b6127f36060830184612280565b95945050505050565b7f546f6b656e3a3a64656c656761746542795369673a20696e76616c696420736960008201527f676e617475726500000000000000000000000000000000000000000000000000602082015250565b6000612858602783612096565b9150612863826127fc565b604082019050919050565b600060208201905081810360008301526128878161284b565b9050919050565b6000612899826121a0565b91507fffffffffffffffffffffffffffffffffffffffffffffffffffffffffffffffff82036128cb576128ca612617565b5b600182019050919050565b7f546f6b656e3a3a64656c656761746542795369673a20696e76616c6964206e6f60008201527f6e63650000000000000000000000000000000000000000000000000000000000602082015250565b6000612932602383612096565b915061293d826128d6565b604082019050919050565b6000602082019050818103600083015261296181612925565b9050919050565b7f546f6b656e3a3a64656c656761746542795369673a207369676e61747572652060008201527f6578706972656400000000000000000000000000000000000000000000000000602082015250565b60006129c4602783612096565b91506129cf82612968565b604082019050919050565b600060208201905081810360008301526129f3816129b7565b9050919050565b7f546f6b656e3a3a6765745072696f72566f7465733a206e6f742079657420646560008201527f7465726d696e6564000000000000000000000000000000000000000000000000602082015250565b6000612a56602883612096565b9150612a61826129fa565b604082019050919050565b60006020820190508181036000830152612a8581612a49565b9050919050565b7f4e487b7100000000000000000000000000000000000000000000000000000000600052601260045260246000fd5b6000612ac68261238b565b9150612ad18361238b565b925082612ae157612ae0612a8c565b5b828204905092915050565b6000612af7826123c5565b9150612b02836123c5565b925082820390506bffffffffffffffffffffffff811115612b2657612b25612617565b5b92915050565b7f546f6b656e3a3a5f7472616e73666572546f6b656e733a2063616e6e6f74207460008201527f72616e736665722066726f6d20746865207a65726f2061646472657373000000602082015250565b6000612b88603d83612096565b9150612b9382612b2c565b604082019050919050565b60006020820190508181036000830152612bb781612b7b565b9050919050565b7f546f6b656e3a3a5f7472616e73666572546f6b656e733a2063616e6e6f74207460008201527f72616e7366657220746f20746865207a65726f20616464726573730000000000602082015250565b6000612c1a603b83612096565b9150612c2582612bbe565b604082019050919050565b60006020820190508181036000830152612c4981612c0d565b9050919050565b6000612c5b826123c5565b9150612c66836123c5565b925082820190506bffffffffffffffffffffffff811115612c8a57612c89612617565b5b92915050565b6000612c9b8261238b565b9150612ca68361238b565b9250828201905063ffffffff811115612cc257612cc1612617565b5b92915050565b6000604082019050612cdd60008301856125ed565b612cea60208301846125ed565b939250505056fe546f6b656e3a3a5f7472616e73666572546f6b656e733a207472616e7366657220616d6f756e7420657863656564732062616c616e6365546f6b656e3a3a7472616e7366657246726f6d3a207472616e7366657220616d6f756e742065786365656473207370656e64657220616c6c6f77616e6365546f6b656e3a3a5f7472616e73666572546f6b656e733a207472616e7366657220616d6f756e74206f766572666c6f7773546f6b656e3a3a617070726f76653a20616d6f756e7420657863656564732039362062697473546f6b656e3a3a5f7772697465436865636b706f696e743a20626c6f636b206e756d62657220657863656564732033322062697473546f6b656e3a3a5f6d6f7665566f7465733a20766f746520616d6f756e7420756e646572666c6f7773546f6b656e3a3a5f6d6f7665566f7465733a20766f746520616d6f756e74206f766572666c6f7773546f6b656e3a3a7472616e736665723a20616d6f756e7420657863656564732039362062697473a2646970667358221220ea6eee3c15ed9bf4fa346f301c24e47769e4637e5e4634efe573a626d9c5cbed64736f6c63430008110033",
    "linkReferences": {},
    "deployedLinkReferences": {}
}