{
  "_format": "hh-sol-artifact-1",
  "contractName": "Voting",
  "sourceName": "contracts/Voting.sol",
  "abi": [
    {
      "inputs": [
        {
          "internalType": "address",
          "name": "_verifier",
          "type": "address"
        },
        {
          "internalType": "address",
          "name": "_token",
          "type": "address"
        },
        {
          "internalType": "address",
          "name": "_register",
          "type": "address"
        }
      ],
      "stateMutability": "nonpayable",
      "type": "constructor"
    },
    {
      "anonymous": false,
      "inputs": [
        {
          "indexed": true,
          "internalType": "uint256",
          "name": "pollCount",
          "type": "uint256"
        },
        {
          "indexed": true,
          "internalType": "uint256",
          "name": "publicKey",
          "type": "uint256"
        }
      ],
      "name": "CreatePoll",
      "type": "event"
    },
    {
      "anonymous": false,
      "inputs": [
        {
          "indexed": true,
          "internalType": "uint256",
          "name": "pollId",
          "type": "uint256"
        },
        {
          "indexed": false,
          "internalType": "uint256",
          "name": "gammaX",
          "type": "uint256"
        },
        {
          "indexed": false,
          "internalType": "uint256",
          "name": "deltaX",
          "type": "uint256"
        },
        {
          "indexed": false,
          "internalType": "uint256",
          "name": "gammaR",
          "type": "uint256"
        },
        {
          "indexed": false,
          "internalType": "uint256",
          "name": "deltaR",
          "type": "uint256"
        }
      ],
      "name": "VotePoll",
      "type": "event"
    },
    {
      "inputs": [],
      "name": "G",
      "outputs": [
        {
          "internalType": "uint256",
          "name": "",
          "type": "uint256"
        }
      ],
      "stateMutability": "view",
      "type": "function"
    },
    {
      "inputs": [],
      "name": "H",
      "outputs": [
        {
          "internalType": "uint256",
          "name": "",
          "type": "uint256"
        }
      ],
      "stateMutability": "view",
      "type": "function"
    },
    {
      "inputs": [],
      "name": "Q",
      "outputs": [
        {
          "internalType": "uint256",
          "name": "",
          "type": "uint256"
        }
      ],
      "stateMutability": "view",
      "type": "function"
    },
    {
      "inputs": [
        {
          "internalType": "uint256",
          "name": "pollId",
          "type": "uint256"
        },
        {
          "internalType": "uint256",
          "name": "totalVote",
          "type": "uint256"
        },
        {
          "internalType": "uint256",
          "name": "totalRandom",
          "type": "uint256"
        }
      ],
      "name": "closePoll",
      "outputs": [],
      "stateMutability": "nonpayable",
      "type": "function"
    },
    {
      "inputs": [
        {
          "internalType": "uint256",
          "name": "votingPeriod",
          "type": "uint256"
        },
        {
          "internalType": "uint256",
          "name": "votingDelay",
          "type": "uint256"
        },
        {
          "internalType": "uint256",
          "name": "publicKey",
          "type": "uint256"
        },
        {
          "internalType": "string",
          "name": "tittle",
          "type": "string"
        },
        {
          "internalType": "string",
          "name": "content",
          "type": "string"
        },
        {
          "internalType": "bool",
          "name": "isTokenVote",
          "type": "bool"
        },
        {
          "internalType": "uint256[]",
          "name": "queryIds",
          "type": "uint256[]"
        }
      ],
      "name": "createPoll",
      "outputs": [
        {
          "internalType": "uint256",
          "name": "",
          "type": "uint256"
        }
      ],
      "stateMutability": "nonpayable",
      "type": "function"
    },
    {
      "inputs": [
        {
          "internalType": "uint256",
          "name": "base",
          "type": "uint256"
        },
        {
          "internalType": "uint256",
          "name": "exponent",
          "type": "uint256"
        }
      ],
      "name": "expmod",
      "outputs": [
        {
          "internalType": "uint256",
          "name": "res",
          "type": "uint256"
        }
      ],
      "stateMutability": "view",
      "type": "function"
    },
    {
      "inputs": [
        {
          "internalType": "address",
          "name": "user",
          "type": "address"
        },
        {
          "internalType": "uint256",
          "name": "pollId",
          "type": "uint256"
        }
      ],
      "name": "getReceipt",
      "outputs": [
        {
          "components": [
            {
              "internalType": "bool",
              "name": "hasVoted",
              "type": "bool"
            },
            {
              "internalType": "uint256",
              "name": "encryptedVote",
              "type": "uint256"
            },
            {
              "internalType": "uint256",
              "name": "votePowers",
              "type": "uint256"
            },
            {
              "internalType": "uint32",
              "name": "timeStamp",
              "type": "uint32"
            }
          ],
          "internalType": "struct Voting.Receipt",
          "name": "",
          "type": "tuple"
        }
      ],
      "stateMutability": "view",
      "type": "function"
    },
    {
      "inputs": [
        {
          "internalType": "uint256",
          "name": "pollId",
          "type": "uint256"
        },
        {
          "components": [
            {
              "internalType": "uint256[2]",
              "name": "a",
              "type": "uint256[2]"
            },
            {
              "internalType": "uint256[2][2]",
              "name": "b",
              "type": "uint256[2][2]"
            },
            {
              "internalType": "uint256[2]",
              "name": "c",
              "type": "uint256[2]"
            },
            {
              "internalType": "uint256[12]",
              "name": "pubSigs",
              "type": "uint256[12]"
            },
            {
              "internalType": "uint256",
              "name": "queryId",
              "type": "uint256"
            },
            {
              "internalType": "uint64",
              "name": "fromTimestamp",
              "type": "uint64"
            },
            {
              "internalType": "uint64",
              "name": "toTimestamp",
              "type": "uint64"
            }
          ],
          "internalType": "struct Voting.Proof[]",
          "name": "proofs",
          "type": "tuple[]"
        },
        {
          "internalType": "address",
          "name": "voter",
          "type": "address"
        }
      ],
      "name": "getVotingPower",
      "outputs": [
        {
          "internalType": "uint256",
          "name": "votes",
          "type": "uint256"
        }
      ],
      "stateMutability": "view",
      "type": "function"
    },
    {
      "inputs": [
        {
          "internalType": "uint256",
          "name": "queryId",
          "type": "uint256"
        },
        {
          "internalType": "uint256",
          "name": "pollId",
          "type": "uint256"
        }
      ],
      "name": "isQueryOf",
      "outputs": [
        {
          "internalType": "bool",
          "name": "",
          "type": "bool"
        }
      ],
      "stateMutability": "view",
      "type": "function"
    },
    {
      "inputs": [],
      "name": "pollCount",
      "outputs": [
        {
          "internalType": "uint256",
          "name": "",
          "type": "uint256"
        }
      ],
      "stateMutability": "view",
      "type": "function"
    },
    {
      "inputs": [
        {
          "internalType": "uint256",
          "name": "",
          "type": "uint256"
        }
      ],
      "name": "polls",
      "outputs": [
        {
          "internalType": "uint256",
          "name": "id",
          "type": "uint256"
        },
        {
          "internalType": "uint256",
          "name": "publicKey",
          "type": "uint256"
        },
        {
          "internalType": "uint256",
          "name": "encryptedVote",
          "type": "uint256"
        },
        {
          "internalType": "int256",
          "name": "numberVote",
          "type": "int256"
        },
        {
          "internalType": "address",
          "name": "daoManager",
          "type": "address"
        },
        {
          "internalType": "uint32",
          "name": "startTimeStamp",
          "type": "uint32"
        },
        {
          "internalType": "uint32",
          "name": "duration",
          "type": "uint32"
        },
        {
          "internalType": "uint32",
          "name": "eta",
          "type": "uint32"
        },
        {
          "internalType": "bool",
          "name": "canceled",
          "type": "bool"
        },
        {
          "internalType": "string",
          "name": "tittle",
          "type": "string"
        },
        {
          "internalType": "string",
          "name": "content",
          "type": "string"
        },
        {
          "internalType": "bool",
          "name": "isTokenVote",
          "type": "bool"
        }
      ],
      "stateMutability": "view",
      "type": "function"
    },
    {
      "inputs": [
        {
          "internalType": "uint256",
          "name": "pollId",
          "type": "uint256"
        }
      ],
      "name": "state",
      "outputs": [
        {
          "internalType": "enum Voting.PollState",
          "name": "",
          "type": "uint8"
        }
      ],
      "stateMutability": "view",
      "type": "function"
    },
    {
      "inputs": [
        {
          "internalType": "uint256[2]",
          "name": "a",
          "type": "uint256[2]"
        },
        {
          "internalType": "uint256[2][2]",
          "name": "b",
          "type": "uint256[2][2]"
        },
        {
          "internalType": "uint256[2]",
          "name": "c",
          "type": "uint256[2]"
        },
        {
          "internalType": "uint256",
          "name": "pollId",
          "type": "uint256"
        },
        {
          "internalType": "uint256",
          "name": "encryptedVote",
          "type": "uint256"
        },
        {
          "components": [
            {
              "internalType": "uint256",
              "name": "gammaX",
              "type": "uint256"
            },
            {
              "internalType": "uint256",
              "name": "deltaX",
              "type": "uint256"
            },
            {
              "internalType": "uint256",
              "name": "gammaR",
              "type": "uint256"
            },
            {
              "internalType": "uint256",
              "name": "deltaR",
              "type": "uint256"
            }
          ],
          "internalType": "struct Voting.Cryption",
          "name": "cryption",
          "type": "tuple"
        },
        {
          "components": [
            {
              "internalType": "uint256[2]",
              "name": "a",
              "type": "uint256[2]"
            },
            {
              "internalType": "uint256[2][2]",
              "name": "b",
              "type": "uint256[2][2]"
            },
            {
              "internalType": "uint256[2]",
              "name": "c",
              "type": "uint256[2]"
            },
            {
              "internalType": "uint256[12]",
              "name": "pubSigs",
              "type": "uint256[12]"
            },
            {
              "internalType": "uint256",
              "name": "queryId",
              "type": "uint256"
            },
            {
              "internalType": "uint64",
              "name": "fromTimestamp",
              "type": "uint64"
            },
            {
              "internalType": "uint64",
              "name": "toTimestamp",
              "type": "uint64"
            }
          ],
          "internalType": "struct Voting.Proof[]",
          "name": "proofs",
          "type": "tuple[]"
        }
      ],
      "name": "votePoll",
      "outputs": [],
      "stateMutability": "nonpayable",
      "type": "function"
    }
  ],
  "bytecode": "0x60806040523480156200001157600080fd5b506040516200338f3803806200338f83398181016040528101906200003791906200016d565b82600260006101000a81548173ffffffffffffffffffffffffffffffffffffffff021916908373ffffffffffffffffffffffffffffffffffffffff16021790555081600360006101000a81548173ffffffffffffffffffffffffffffffffffffffff021916908373ffffffffffffffffffffffffffffffffffffffff16021790555080600460006101000a81548173ffffffffffffffffffffffffffffffffffffffff021916908373ffffffffffffffffffffffffffffffffffffffff160217905550505050620001c9565b600080fd5b600073ffffffffffffffffffffffffffffffffffffffff82169050919050565b6000620001358262000108565b9050919050565b620001478162000128565b81146200015357600080fd5b50565b60008151905062000167816200013c565b92915050565b60008060006060848603121562000189576200018862000103565b5b6000620001998682870162000156565b9350506020620001ac8682870162000156565b9250506040620001bf8682870162000156565b9150509250925092565b6131b680620001d96000396000f3fe608060405234801561001057600080fd5b50600436106100cf5760003560e01c80639207891d1161008c578063bae1888011610066578063bae1888014610231578063c55959b114610261578063d2081cab14610291578063e493ef8c146102c1576100cf565b80639207891d146101a85780639b53ddef146101c6578063ac2f0074146101f6576100cf565b80630d94b405146100d45780633e4f49e6146100f05780635cebdf90146101205780636fecb6231461015057806370a5d8611461016e578063826716491461018c575b600080fd5b6100ee60048036038101906100e99190611683565b6102df565b005b61010a600480360381019061010591906116d6565b610573565b604051610117919061177a565b60405180910390f35b61013a60048036038101906101359190611888565b6106b5565b604051610147919061199a565b60405180910390f35b6101586109e6565b604051610165919061199a565b60405180910390f35b6101766109ec565b604051610183919061199a565b60405180910390f35b6101a660048036038101906101a19190611c1e565b6109f2565b005b6101b0610dee565b6040516101bd919061199a565b60405180910390f35b6101e060048036038101906101db9190611d43565b610df4565b6040516101ed919061199a565b60405180910390f35b610210600480360381019061020b91906116d6565b61125b565b6040516102289c9b9a99989796959493929190611e8c565b60405180910390f35b61024b60048036038101906102469190611f54565b611435565b6040516102589190612016565b60405180910390f35b61027b60048036038101906102769190612031565b6114f8565b6040516102889190612071565b60405180910390f35b6102ab60048036038101906102a69190612031565b611537565b6040516102b8919061199a565b60405180910390f35b6102c96115e5565b6040516102d6919061199a565b60405180910390f35b6004808111156102f2576102f1611703565b5b6102fb84610573565b600481111561030d5761030c611703565b5b148061034557506001600481111561032857610327611703565b5b61033184610573565b600481111561034357610342611703565b5b145b610384576040517f08c379a000000000000000000000000000000000000000000000000000000000815260040161037b90612124565b60405180910390fd5b60006001600085815260200190815260200160002090507f30644e72e131a029b85045b68181585d2833e84879b9709143e1f593f0000001831080156103e957507f30644e72e131a029b85045b68181585d2833e84879b9709143e1f593f000000182105b610428576040517f08c379a000000000000000000000000000000000000000000000000000000000815260040161041f906121b6565b60405180910390fd5b600060027f30644e72e131a029b85045b68181585d2833e84879b9709143e1f593f00000016104579190612234565b8411610464576000610467565b60015b60ff16905081600201547f30644e72e131a029b85045b68181585d2833e84879b9709143e1f593f0000001806104a05761049f6121d6565b5b6104ac611ebb86611537565b6104c3611ee385896104be9190612265565b611537565b0914610504576040517f08c379a00000000000000000000000000000000000000000000000000000000081526004016104fb906122e5565b60405180910390fd5b60004290508083600401601c6101000a81548163ffffffff021916908363ffffffff1602179055507f30644e72e131a029b85045b68181585d2833e84879b9709143e1f593f0000001826105589190612305565b856105639190612347565b8360030181905550505050505050565b60008060016000848152602001908152602001600020905060008160040160149054906101000a900463ffffffff1663ffffffff16116105e8576040517f08c379a00000000000000000000000000000000000000000000000000000000081526004016105df906123fc565b60405180910390fd5b8060050160009054906101000a900460ff16156106095760039150506106b0565b8060040160149054906101000a900463ffffffff1663ffffffff1642116106345760009150506106b0565b600081600401601c9054906101000a900463ffffffff1663ffffffff16146106605760029150506106b0565b8060040160189054906101000a900463ffffffff168160040160149054906101000a900463ffffffff16610694919061241c565b63ffffffff1642116106aa5760019150506106b0565b60049150505b919050565b600080600090505b838390508110156107ce5760001515600460009054906101000a900473ffffffffffffffffffffffffffffffffffffffff1673ffffffffffffffffffffffffffffffffffffffff1663e4d0d78086868581811061071d5761071c612454565b5b905060200201356040518263ffffffff1660e01b8152600401610740919061199a565b602060405180830381865afa15801561075d573d6000803e3d6000fd5b505050506040513d601f19601f820116820180604052508101906107819190612498565b1515146107c3576040517f08c379a00000000000000000000000000000000000000000000000000000000081526004016107ba90612537565b60405180910390fd5b6001810190506106bd565b506000808154809291906107e190612557565b919050555060006001600080548152602001908152602001600020905060008b4261080c919061259f565b905060008d90506000548360000181905550600083600401601c6101000a81548163ffffffff021916908363ffffffff160217905550818360040160146101000a81548163ffffffff021916908363ffffffff160217905550808360040160186101000a81548163ffffffff021916908363ffffffff1602179055508b836001018190555060018360020181905550338360040160006101000a81548173ffffffffffffffffffffffffffffffffffffffff021916908373ffffffffffffffffffffffffffffffffffffffff16021790555060008360050160006101000a81548160ff0219169083151502179055508a8a84600601918261090e9291906127ea565b5088888460070191826109229291906127ea565b50868360080160006101000a81548160ff02191690831515021790555060005b8686905081101561099f57600184600a01600089898581811061096857610967612454565b5b90506020020135815260200190815260200160002060006101000a81548160ff021916908315150217905550600181019050610942565b508b6000547f9a610d5c3d09c4c1d3cc7a975e49a870297bbb0b8026d0009dc034be6fb792ba60405160405180910390a360005493505050509a9950505050505050505050565b611ee381565b611ebb81565b60016004811115610a0657610a05611703565b5b610a0f86610573565b6004811115610a2157610a20611703565b5b14610a61576040517f08c379a0000000000000000000000000000000000000000000000000000000008152600401610a589061292c565b60405180910390fd5b60003390506000600160008881526020019081526020016000209050600081600b0160008473ffffffffffffffffffffffffffffffffffffffff1673ffffffffffffffffffffffffffffffffffffffff1681526020019081526020016000209050600015158160000160009054906101000a900460ff16151514610b1a576040517f08c379a0000000000000000000000000000000000000000000000000000000008152600401610b11906129be565b60405180910390fd5b6000610b2889878787610df4565b9050600260009054906101000a900473ffffffffffffffffffffffffffffffffffffffff1673ffffffffffffffffffffffffffffffffffffffff1663c542c93b8d8d8d6040518061012001604052808e81526020018d6000013581526020018d6020013581526020018d6040013581526020018d606001358152602001878152602001611ee38152602001611ebb815260200189600101548152506040518563ffffffff1660e01b8152600401610be29493929190612bfc565b602060405180830381865afa158015610bff573d6000803e3d6000fd5b505050506040513d601f19601f82011682018060405250810190610c239190612498565b610c62576040517f08c379a0000000000000000000000000000000000000000000000000000000008152600401610c5990612cb5565b60405180910390fd5b7f30644e72e131a029b85045b68181585d2833e84879b9709143e1f593f000000180610c9157610c906121d6565b5b88600160008c81526020019081526020016000206002015409600160008b81526020019081526020016000206002018190555060005b86869050811015610d405760011515846009016000898985818110610cef57610cee612454565b5b90506102e00201610100016000600c8110610d0d57610d0c612454565b5b6020020135815260200190815260200160002060009054906101000a905050508080610d3890612557565b915050610cc7565b5060018260000160006101000a81548160ff021916908315150217905550878260010181905550808260020181905550428260030160006101000a81548163ffffffff021916908363ffffffff160217905550887edd81174d8f34c3e9c3a91fd69ca49877705de5ee2eabf0f84cf55ec6c900c6886000013589602001358a604001358b60600135604051610dd89493929190612cd5565b60405180910390a2505050505050505050505050565b60005481565b600080600160008781526020019081526020016000209050600091508060080160009054906101000a900460ff1615610ef557600360009054906101000a900473ffffffffffffffffffffffffffffffffffffffff1673ffffffffffffffffffffffffffffffffffffffff1663dd725dc3848360040160149054906101000a900463ffffffff166040518363ffffffff1660e01b8152600401610e98929190612d1a565b602060405180830381865afa158015610eb5573d6000803e3d6000fd5b505050506040513d601f19601f82011682018060405250810190610ed99190612d87565b6bffffffffffffffffffffffff1682610ef2919061259f565b91505b60005b858590508110156112515760011515610f2f878784818110610f1d57610f1c612454565b5b90506102e002016102800135896114f8565b151514610f71576040517f08c379a0000000000000000000000000000000000000000000000000000000008152600401610f6890612e26565b60405180910390fd5b8160040160149054906101000a900463ffffffff1663ffffffff16868683818110610f9f57610f9e612454565b5b90506102e002016102a0016020810190610fb99190612e86565b67ffffffffffffffff161015611004576040517f08c379a0000000000000000000000000000000000000000000000000000000008152600401610ffb90612f25565b60405180910390fd5b6000151582600901600088888581811061102157611020612454565b5b90506102e00201610100016000600c811061103f5761103e612454565b5b6020020135815260200190815260200160002060009054906101000a900460ff161515146110a2576040517f08c379a000000000000000000000000000000000000000000000000000000000815260040161109990612f91565b60405180910390fd5b600460009054906101000a900473ffffffffffffffffffffffffffffffffffffffff1673ffffffffffffffffffffffffffffffffffffffff1663a41351fe8787848181106110f3576110f2612454565b5b90506102e002016000018888858181106111105761110f612454565b5b90506102e0020160400189898681811061112d5761112c612454565b5b90506102e0020160c0018a8a8781811061114a57611149612454565b5b90506102e00201610100018b8b8881811061116857611167612454565b5b90506102e0020161028001358c8c8981811061118757611186612454565b5b90506102e002016102a00160208101906111a19190612e86565b8d8d8a8181106111b4576111b3612454565b5b90506102e002016102c00160208101906111ce9190612e86565b6040518863ffffffff1660e01b81526004016111f0979695949392919061309e565b602060405180830381865afa15801561120d573d6000803e3d6000fd5b505050506040513d601f19601f820116820180604052508101906112319190613127565b8361123c919061259f565b9250808061124990612557565b915050610ef8565b5050949350505050565b60016020528060005260406000206000915090508060000154908060010154908060020154908060030154908060040160009054906101000a900473ffffffffffffffffffffffffffffffffffffffff16908060040160149054906101000a900463ffffffff16908060040160189054906101000a900463ffffffff169080600401601c9054906101000a900463ffffffff16908060050160009054906101000a900460ff16908060060180546113119061260d565b80601f016020809104026020016040519081016040528092919081815260200182805461133d9061260d565b801561138a5780601f1061135f5761010080835404028352916020019161138a565b820191906000526020600020905b81548152906001019060200180831161136d57829003601f168201915b50505050509080600701805461139f9061260d565b80601f01602080910402602001604051908101604052809291908181526020018280546113cb9061260d565b80156114185780601f106113ed57610100808354040283529160200191611418565b820191906000526020600020905b8154815290600101906020018083116113fb57829003601f168201915b5050505050908060080160009054906101000a900460ff1690508c565b61143d611609565b60016000838152602001908152602001600020600b0160008473ffffffffffffffffffffffffffffffffffffffff1673ffffffffffffffffffffffffffffffffffffffff1681526020019081526020016000206040518060800160405290816000820160009054906101000a900460ff1615151515815260200160018201548152602001600282015481526020016003820160009054906101000a900463ffffffff1663ffffffff1663ffffffff1681525050905092915050565b600060016000838152602001908152602001600020600a01600084815260200190815260200160002060009054906101000a900460ff16905092915050565b60006001905060005b60ff8163ffffffff1610156115de576001808263ffffffff1685901c1603611597577f30644e72e131a029b85045b68181585d2833e84879b9709143e1f593f000000180611591576115906121d6565b5b84830991505b7f30644e72e131a029b85045b68181585d2833e84879b9709143e1f593f0000001806115c6576115c56121d6565b5b848509935080806115d690613154565b915050611540565b5092915050565b7f30644e72e131a029b85045b68181585d2833e84879b9709143e1f593f000000181565b60405180608001604052806000151581526020016000815260200160008152602001600063ffffffff1681525090565b6000604051905090565b600080fd5b600080fd5b6000819050919050565b6116608161164d565b811461166b57600080fd5b50565b60008135905061167d81611657565b92915050565b60008060006060848603121561169c5761169b611643565b5b60006116aa8682870161166e565b93505060206116bb8682870161166e565b92505060406116cc8682870161166e565b9150509250925092565b6000602082840312156116ec576116eb611643565b5b60006116fa8482850161166e565b91505092915050565b7f4e487b7100000000000000000000000000000000000000000000000000000000600052602160045260246000fd5b6005811061174357611742611703565b5b50565b600081905061175482611732565b919050565b600061176482611746565b9050919050565b61177481611759565b82525050565b600060208201905061178f600083018461176b565b92915050565b600080fd5b600080fd5b600080fd5b60008083601f8401126117ba576117b9611795565b5b8235905067ffffffffffffffff8111156117d7576117d661179a565b5b6020830191508360018202830111156117f3576117f261179f565b5b9250929050565b60008115159050919050565b61180f816117fa565b811461181a57600080fd5b50565b60008135905061182c81611806565b92915050565b60008083601f84011261184857611847611795565b5b8235905067ffffffffffffffff8111156118655761186461179a565b5b6020830191508360208202830111156118815761188061179f565b5b9250929050565b60008060008060008060008060008060e08b8d0312156118ab576118aa611643565b5b60006118b98d828e0161166e565b9a505060206118ca8d828e0161166e565b99505060406118db8d828e0161166e565b98505060608b013567ffffffffffffffff8111156118fc576118fb611648565b5b6119088d828e016117a4565b975097505060808b013567ffffffffffffffff81111561192b5761192a611648565b5b6119378d828e016117a4565b955095505060a061194a8d828e0161181d565b93505060c08b013567ffffffffffffffff81111561196b5761196a611648565b5b6119778d828e01611832565b92509250509295989b9194979a5092959850565b6119948161164d565b82525050565b60006020820190506119af600083018461198b565b92915050565b6000601f19601f8301169050919050565b7f4e487b7100000000000000000000000000000000000000000000000000000000600052604160045260246000fd5b6119fe826119b5565b810181811067ffffffffffffffff82111715611a1d57611a1c6119c6565b5b80604052505050565b6000611a30611639565b9050611a3c82826119f5565b919050565b600067ffffffffffffffff821115611a5c57611a5b6119c6565b5b602082029050919050565b6000611a7a611a7584611a41565b611a26565b90508060208402830185811115611a9457611a9361179f565b5b835b81811015611abd5780611aa9888261166e565b845260208401935050602081019050611a96565b5050509392505050565b600082601f830112611adc57611adb611795565b5b6002611ae9848285611a67565b91505092915050565b600067ffffffffffffffff821115611b0d57611b0c6119c6565b5b602082029050919050565b6000611b2b611b2684611af2565b611a26565b90508060408402830185811115611b4557611b4461179f565b5b835b81811015611b6e5780611b5a8882611ac7565b845260208401935050604081019050611b47565b5050509392505050565b600082601f830112611b8d57611b8c611795565b5b6002611b9a848285611b18565b91505092915050565b600080fd5b600060808284031215611bbe57611bbd611ba3565b5b81905092915050565b60008083601f840112611bdd57611bdc611795565b5b8235905067ffffffffffffffff811115611bfa57611bf961179a565b5b602083019150836102e0820283011115611c1757611c1661179f565b5b9250929050565b6000806000806000806000806101e0898b031215611c3f57611c3e611643565b5b6000611c4d8b828c01611ac7565b9850506040611c5e8b828c01611b78565b97505060c0611c6f8b828c01611ac7565b965050610100611c818b828c0161166e565b955050610120611c938b828c0161166e565b945050610140611ca58b828c01611ba8565b9350506101c089013567ffffffffffffffff811115611cc757611cc6611648565b5b611cd38b828c01611bc7565b92509250509295985092959890939650565b600073ffffffffffffffffffffffffffffffffffffffff82169050919050565b6000611d1082611ce5565b9050919050565b611d2081611d05565b8114611d2b57600080fd5b50565b600081359050611d3d81611d17565b92915050565b60008060008060608587031215611d5d57611d5c611643565b5b6000611d6b8782880161166e565b945050602085013567ffffffffffffffff811115611d8c57611d8b611648565b5b611d9887828801611bc7565b93509350506040611dab87828801611d2e565b91505092959194509250565b6000819050919050565b611dca81611db7565b82525050565b611dd981611d05565b82525050565b600063ffffffff82169050919050565b611df881611ddf565b82525050565b611e07816117fa565b82525050565b600081519050919050565b600082825260208201905092915050565b60005b83811015611e47578082015181840152602081019050611e2c565b60008484015250505050565b6000611e5e82611e0d565b611e688185611e18565b9350611e78818560208601611e29565b611e81816119b5565b840191505092915050565b600061018082019050611ea2600083018f61198b565b611eaf602083018e61198b565b611ebc604083018d61198b565b611ec9606083018c611dc1565b611ed6608083018b611dd0565b611ee360a083018a611def565b611ef060c0830189611def565b611efd60e0830188611def565b611f0b610100830187611dfe565b818103610120830152611f1e8186611e53565b9050818103610140830152611f338185611e53565b9050611f43610160830184611dfe565b9d9c50505050505050505050505050565b60008060408385031215611f6b57611f6a611643565b5b6000611f7985828601611d2e565b9250506020611f8a8582860161166e565b9150509250929050565b611f9d816117fa565b82525050565b611fac8161164d565b82525050565b611fbb81611ddf565b82525050565b608082016000820151611fd76000850182611f94565b506020820151611fea6020850182611fa3565b506040820151611ffd6040850182611fa3565b5060608201516120106060850182611fb2565b50505050565b600060808201905061202b6000830184611fc1565b92915050565b6000806040838503121561204857612047611643565b5b60006120568582860161166e565b92505060206120678582860161166e565b9150509250929050565b60006020820190506120866000830184611dfe565b92915050565b7f507269766174652d566f74696e673a3a636c6f736520706f6c6c3a20706f6c6c60008201527f206f6e6c792063616e20626520636c6f7365642069662069742069732073756360208201527f636565646564206f722061637469766500000000000000000000000000000000604082015250565b600061210e605083611e18565b91506121198261208c565b606082019050919050565b6000602082019050818103600083015261213d81612101565b9050919050565b7f746f74616c566f746520616e6420746f74616c52616e646f6d206d757374206d60008201527f6f64756c65205100000000000000000000000000000000000000000000000000602082015250565b60006121a0602783611e18565b91506121ab82612144565b604082019050919050565b600060208201905081810360008301526121cf81612193565b9050919050565b7f4e487b7100000000000000000000000000000000000000000000000000000000600052601260045260246000fd5b7f4e487b7100000000000000000000000000000000000000000000000000000000600052601160045260246000fd5b600061223f8261164d565b915061224a8361164d565b92508261225a576122596121d6565b5b828204905092915050565b60006122708261164d565b915061227b8361164d565b925082820390508181111561229357612292612205565b5b92915050565b7f646563727970742077726f6e6700000000000000000000000000000000000000600082015250565b60006122cf600d83611e18565b91506122da82612299565b602082019050919050565b600060208201905081810360008301526122fe816122c2565b9050919050565b60006123108261164d565b915061231b8361164d565b92508282026123298161164d565b915082820484148315176123405761233f612205565b5b5092915050565b600061235282611db7565b915061235d83611db7565b925082820390508181126000841216828213600085121516171561238457612383612205565b5b92915050565b7f507269766174652d566f74696e673a3a73746174653a20706f6c6c206e6f742060008201527f657869737465642e000000000000000000000000000000000000000000000000602082015250565b60006123e6602883611e18565b91506123f18261238a565b604082019050919050565b60006020820190508181036000830152612415816123d9565b9050919050565b600061242782611ddf565b915061243283611ddf565b9250828201905063ffffffff81111561244e5761244d612205565b5b92915050565b7f4e487b7100000000000000000000000000000000000000000000000000000000600052603260045260246000fd5b60008151905061249281611806565b92915050565b6000602082840312156124ae576124ad611643565b5b60006124bc84828501612483565b91505092915050565b7f507269766174652d566f74696e673a3a63726561746520706f6c6c3a2071756560008201527f727949642069732064697361626c65642e000000000000000000000000000000602082015250565b6000612521603183611e18565b915061252c826124c5565b604082019050919050565b6000602082019050818103600083015261255081612514565b9050919050565b60006125628261164d565b91507fffffffffffffffffffffffffffffffffffffffffffffffffffffffffffffffff820361259457612593612205565b5b600182019050919050565b60006125aa8261164d565b91506125b58361164d565b92508282019050808211156125cd576125cc612205565b5b92915050565b600082905092915050565b7f4e487b7100000000000000000000000000000000000000000000000000000000600052602260045260246000fd5b6000600282049050600182168061262557607f821691505b602082108103612638576126376125de565b5b50919050565b60008190508160005260206000209050919050565b60006020601f8301049050919050565b600082821b905092915050565b6000600883026126a07fffffffffffffffffffffffffffffffffffffffffffffffffffffffffffffffff82612663565b6126aa8683612663565b95508019841693508086168417925050509392505050565b6000819050919050565b60006126e76126e26126dd8461164d565b6126c2565b61164d565b9050919050565b6000819050919050565b612701836126cc565b61271561270d826126ee565b848454612670565b825550505050565b600090565b61272a61271d565b6127358184846126f8565b505050565b5b818110156127595761274e600082612722565b60018101905061273b565b5050565b601f82111561279e5761276f8161263e565b61277884612653565b81016020851015612787578190505b61279b61279385612653565b83018261273a565b50505b505050565b600082821c905092915050565b60006127c1600019846008026127a3565b1980831691505092915050565b60006127da83836127b0565b9150826002028217905092915050565b6127f483836125d3565b67ffffffffffffffff81111561280d5761280c6119c6565b5b612817825461260d565b61282282828561275d565b6000601f831160018114612851576000841561283f578287013590505b61284985826127ce565b8655506128b1565b601f19841661285f8661263e565b60005b8281101561288757848901358255600182019150602085019450602081019050612862565b868310156128a457848901356128a0601f8916826127b0565b8355505b6001600288020188555050505b50505050505050565b7f507269766174652d566f74696e673a3a766f746520706f6c6c3a20706f6c6c2060008201527f6973206e6f742061637469766174652e00000000000000000000000000000000602082015250565b6000612916603083611e18565b9150612921826128ba565b604082019050919050565b6000602082019050818103600083015261294581612909565b9050919050565b7f507269766174652d566f74696e673a3a766f746520706f6c6c3a20766f74657260008201527f20616c726561647920766f746564000000000000000000000000000000000000602082015250565b60006129a8602e83611e18565b91506129b38261294c565b604082019050919050565b600060208201905081810360008301526129d78161299b565b9050919050565b600060029050919050565b600081905092915050565b6000819050919050565b6000612a0a8383611fa3565b60208301905092915050565b6000602082019050919050565b612a2c816129de565b612a3681846129e9565b9250612a41826129f4565b8060005b83811015612a72578151612a5987826129fe565b9650612a6483612a16565b925050600181019050612a45565b505050505050565b600060029050919050565b600081905092915050565b6000819050919050565b600081905092915050565b612aae816129de565b612ab88184612a9a565b9250612ac3826129f4565b8060005b83811015612af4578151612adb87826129fe565b9650612ae683612a16565b925050600181019050612ac7565b505050505050565b6000612b088383612aa5565b60408301905092915050565b6000602082019050919050565b612b2a81612a7a565b612b348184612a85565b9250612b3f82612a90565b8060005b83811015612b70578151612b578782612afc565b9650612b6283612b14565b925050600181019050612b43565b505050505050565b600060099050919050565b600081905092915050565b6000819050919050565b6000602082019050919050565b612bae81612b78565b612bb88184612b83565b9250612bc382612b8e565b8060005b83811015612bf4578151612bdb87826129fe565b9650612be683612b98565b925050600181019050612bc7565b505050505050565b600061022082019050612c126000830187612a23565b612c1f6040830186612b21565b612c2c60c0830185612a23565b612c3a610100830184612ba5565b95945050505050565b7f507269766174652d566f74696e673a3a766f746520706f6c6c3a2070726f6f6660008201527f20697320696e636f726563740000000000000000000000000000000000000000602082015250565b6000612c9f602c83611e18565b9150612caa82612c43565b604082019050919050565b60006020820190508181036000830152612cce81612c92565b9050919050565b6000608082019050612cea600083018761198b565b612cf7602083018661198b565b612d04604083018561198b565b612d11606083018461198b565b95945050505050565b6000604082019050612d2f6000830185611dd0565b612d3c6020830184611def565b9392505050565b60006bffffffffffffffffffffffff82169050919050565b612d6481612d43565b8114612d6f57600080fd5b50565b600081519050612d8181612d5b565b92915050565b600060208284031215612d9d57612d9c611643565b5b6000612dab84828501612d72565b91505092915050565b7f507269766174652d566f74696e673a3a67657420766f74696e6720706f77657260008201527f3a2071756572794964206e6f742061766169626c650000000000000000000000602082015250565b6000612e10603583611e18565b9150612e1b82612db4565b604082019050919050565b60006020820190508181036000830152612e3f81612e03565b9050919050565b600067ffffffffffffffff82169050919050565b612e6381612e46565b8114612e6e57600080fd5b50565b600081359050612e8081612e5a565b92915050565b600060208284031215612e9c57612e9b611643565b5b6000612eaa84828501612e71565b91505092915050565b7f507269766174652d566f74696e673a3a67657420766f74696e6720706f77657260008201527f3a2074696d655374616d70206e6f742061766169626c65000000000000000000602082015250565b6000612f0f603783611e18565b9150612f1a82612eb3565b604082019050919050565b60006020820190508181036000830152612f3e81612f02565b9050919050565b7f6f6e65206f66204d6574726963205a6964656e20697320757365000000000000600082015250565b6000612f7b601a83611e18565b9150612f8682612f45565b602082019050919050565b60006020820190508181036000830152612faa81612f6e565b9050919050565b82818337505050565b612fc660408383612fb1565b5050565b600060029050919050565b6000819050919050565b612feb60408383612fb1565b5050565b6000612ffb8383612fdf565b60408301905092915050565b600082905092915050565b6000604082019050919050565b61302881612fca565b6130328184612a85565b925061303d82612fd5565b8060005b83811015613076576130538284613007565b61305d8782612fef565b965061306883613012565b925050600181019050613041565b505050505050565b61308b6101808383612fb1565b5050565b61309881612e46565b82525050565b60006102e0820190506130b4600083018a612fba565b6130c1604083018961301f565b6130ce60c0830188612fba565b6130dc61010083018761307e565b6130ea61028083018661198b565b6130f86102a083018561308f565b6131066102c083018461308f565b98975050505050505050565b60008151905061312181611657565b92915050565b60006020828403121561313d5761313c611643565b5b600061314b84828501613112565b91505092915050565b600061315f82611ddf565b915063ffffffff820361317557613174612205565b5b60018201905091905056fea26469706673582212203ec5befbaa1f807b8b06c0388ae3a8f3fd9fb8f013a1619aa63b9d1cd4a87bb264736f6c63430008110033",
  "linkReferences": {},
  "deployedLinkReferences": {}
}