{
  "_format": "hh-sol-artifact-1",
  "contractName": "Voting",
  "sourceName": "contracts/Voting.sol",
  "abi": [
    {
      "inputs": [
        {
          "internalType": "address",
          "name": "_verifier",
          "type": "address"
        },
        {
          "internalType": "address",
          "name": "_token",
          "type": "address"
        }
      ],
      "stateMutability": "nonpayable",
      "type": "constructor"
    },
    {
      "anonymous": false,
      "inputs": [
        {
          "indexed": true,
          "internalType": "uint256",
          "name": "pollCount",
          "type": "uint256"
        },
        {
          "indexed": true,
          "internalType": "uint256",
          "name": "publicKey",
          "type": "uint256"
        }
      ],
      "name": "CreatePoll",
      "type": "event"
    },
    {
      "anonymous": false,
      "inputs": [
        {
          "indexed": true,
          "internalType": "uint256",
          "name": "pollId",
          "type": "uint256"
        },
        {
          "indexed": false,
          "internalType": "uint256",
          "name": "gammaX",
          "type": "uint256"
        },
        {
          "indexed": false,
          "internalType": "uint256",
          "name": "deltaX",
          "type": "uint256"
        },
        {
          "indexed": false,
          "internalType": "uint256",
          "name": "gammaR",
          "type": "uint256"
        },
        {
          "indexed": false,
          "internalType": "uint256",
          "name": "deltaR",
          "type": "uint256"
        }
      ],
      "name": "VotePoll",
      "type": "event"
    },
    {
      "inputs": [],
      "name": "G",
      "outputs": [
        {
          "internalType": "uint256",
          "name": "",
          "type": "uint256"
        }
      ],
      "stateMutability": "view",
      "type": "function"
    },
    {
      "inputs": [],
      "name": "H",
      "outputs": [
        {
          "internalType": "uint256",
          "name": "",
          "type": "uint256"
        }
      ],
      "stateMutability": "view",
      "type": "function"
    },
    {
      "inputs": [],
      "name": "Q",
      "outputs": [
        {
          "internalType": "uint256",
          "name": "",
          "type": "uint256"
        }
      ],
      "stateMutability": "view",
      "type": "function"
    },
    {
      "inputs": [
        {
          "internalType": "uint256",
          "name": "pollId",
          "type": "uint256"
        },
        {
          "internalType": "uint256",
          "name": "totalVote",
          "type": "uint256"
        },
        {
          "internalType": "uint256",
          "name": "totalRandom",
          "type": "uint256"
        }
      ],
      "name": "closePoll",
      "outputs": [],
      "stateMutability": "nonpayable",
      "type": "function"
    },
    {
      "inputs": [
        {
          "internalType": "uint256",
          "name": "votingPeriod",
          "type": "uint256"
        },
        {
          "internalType": "uint256",
          "name": "votingDelay",
          "type": "uint256"
        },
        {
          "internalType": "uint256",
          "name": "publicKey",
          "type": "uint256"
        },
        {
          "internalType": "string",
          "name": "content",
          "type": "string"
        }
      ],
      "name": "createPoll",
      "outputs": [
        {
          "internalType": "uint256",
          "name": "",
          "type": "uint256"
        }
      ],
      "stateMutability": "nonpayable",
      "type": "function"
    },
    {
      "inputs": [
        {
          "internalType": "uint256",
          "name": "base",
          "type": "uint256"
        },
        {
          "internalType": "uint256",
          "name": "exponent",
          "type": "uint256"
        }
      ],
      "name": "expmod",
      "outputs": [
        {
          "internalType": "uint256",
          "name": "res",
          "type": "uint256"
        }
      ],
      "stateMutability": "nonpayable",
      "type": "function"
    },
    {
      "inputs": [],
      "name": "pollCount",
      "outputs": [
        {
          "internalType": "uint256",
          "name": "",
          "type": "uint256"
        }
      ],
      "stateMutability": "view",
      "type": "function"
    },
    {
      "inputs": [
        {
          "internalType": "uint256",
          "name": "",
          "type": "uint256"
        }
      ],
      "name": "polls",
      "outputs": [
        {
          "internalType": "uint256",
          "name": "id",
          "type": "uint256"
        },
        {
          "internalType": "uint256",
          "name": "publicKey",
          "type": "uint256"
        },
        {
          "internalType": "uint256",
          "name": "encryptedVote",
          "type": "uint256"
        },
        {
          "internalType": "int256",
          "name": "numberVote",
          "type": "int256"
        },
        {
          "internalType": "address",
          "name": "daoManager",
          "type": "address"
        },
        {
          "internalType": "uint32",
          "name": "startTimeStamp",
          "type": "uint32"
        },
        {
          "internalType": "uint32",
          "name": "duration",
          "type": "uint32"
        },
        {
          "internalType": "uint32",
          "name": "eta",
          "type": "uint32"
        },
        {
          "internalType": "bool",
          "name": "canceled",
          "type": "bool"
        },
        {
          "internalType": "string",
          "name": "content",
          "type": "string"
        }
      ],
      "stateMutability": "view",
      "type": "function"
    },
    {
      "inputs": [
        {
          "internalType": "uint256",
          "name": "pollId",
          "type": "uint256"
        }
      ],
      "name": "state",
      "outputs": [
        {
          "internalType": "enum Voting.PollState",
          "name": "",
          "type": "uint8"
        }
      ],
      "stateMutability": "view",
      "type": "function"
    },
    {
      "inputs": [
        {
          "internalType": "uint256[2]",
          "name": "a",
          "type": "uint256[2]"
        },
        {
          "internalType": "uint256[2][2]",
          "name": "b",
          "type": "uint256[2][2]"
        },
        {
          "internalType": "uint256[2]",
          "name": "c",
          "type": "uint256[2]"
        },
        {
          "internalType": "uint256",
          "name": "pollId",
          "type": "uint256"
        },
        {
          "internalType": "uint256",
          "name": "encryptedVote",
          "type": "uint256"
        },
        {
          "internalType": "uint256",
          "name": "gammaX",
          "type": "uint256"
        },
        {
          "internalType": "uint256",
          "name": "deltaX",
          "type": "uint256"
        },
        {
          "internalType": "uint256",
          "name": "gammaR",
          "type": "uint256"
        },
        {
          "internalType": "uint256",
          "name": "deltaR",
          "type": "uint256"
        }
      ],
      "name": "votePoll",
      "outputs": [],
      "stateMutability": "nonpayable",
      "type": "function"
    }
  ],
  "bytecode": "0x60806040523480156200001157600080fd5b506040516200233d3803806200233d83398181016040528101906200003791906200012b565b81600260006101000a81548173ffffffffffffffffffffffffffffffffffffffff021916908373ffffffffffffffffffffffffffffffffffffffff16021790555080600360006101000a81548173ffffffffffffffffffffffffffffffffffffffff021916908373ffffffffffffffffffffffffffffffffffffffff160217905550505062000172565b600080fd5b600073ffffffffffffffffffffffffffffffffffffffff82169050919050565b6000620000f382620000c6565b9050919050565b6200010581620000e6565b81146200011157600080fd5b50565b6000815190506200012581620000fa565b92915050565b60008060408385031215620001455762000144620000c1565b5b6000620001558582860162000114565b9250506020620001688582860162000114565b9150509250929050565b6121bb80620001826000396000f3fe608060405234801561001057600080fd5b506004361061009e5760003560e01c8063ac2f007411610066578063ac2f007414610149578063c127626014610182578063d2081cab1461019e578063e493ef8c146101ce578063f14f0a4c146101ec5761009e565b80630d94b405146100a35780633e4f49e6146100bf5780636fecb623146100ef57806370a5d8611461010d5780639207891d1461012b575b600080fd5b6100bd60048036038101906100b89190610df0565b61021c565b005b6100d960048036038101906100d49190610e43565b6104b0565b6040516100e69190610ee7565b60405180910390f35b6100f76105f2565b6040516101049190610f11565b60405180910390f35b6101156105f8565b6040516101229190610f11565b60405180910390f35b6101336105fe565b6040516101409190610f11565b60405180910390f35b610163600480360381019061015e9190610e43565b610604565b6040516101799a99989796959493929190611050565b60405180910390f35b61019c600480360381019061019791906112da565b61073d565b005b6101b860048036038101906101b391906113a9565b610b51565b6040516101c59190610f11565b60405180910390f35b6101d6610bff565b6040516101e39190610f11565b60405180910390f35b61020660048036038101906102019190611444565b610c23565b6040516102139190610f11565b60405180910390f35b60048081111561022f5761022e610e70565b5b610238846104b0565b600481111561024a57610249610e70565b5b148061028257506001600481111561026557610264610e70565b5b61026e846104b0565b60048111156102805761027f610e70565b5b145b6102c1576040517f08c379a00000000000000000000000000000000000000000000000000000000081526004016102b890611564565b60405180910390fd5b60006001600085815260200190815260200160002090507f30644e72e131a029b85045b68181585d2833e84879b9709143e1f593f00000018310801561032657507f30644e72e131a029b85045b68181585d2833e84879b9709143e1f593f000000182105b610365576040517f08c379a000000000000000000000000000000000000000000000000000000000815260040161035c906115f6565b60405180910390fd5b600060027f30644e72e131a029b85045b68181585d2833e84879b9709143e1f593f00000016103949190611674565b84116103a15760006103a4565b60015b60ff16905081600201547f30644e72e131a029b85045b68181585d2833e84879b9709143e1f593f0000001806103dd576103dc611616565b5b6103e9611ebb86610b51565b610400611ee385896103fb91906116a5565b610b51565b0914610441576040517f08c379a000000000000000000000000000000000000000000000000000000000815260040161043890611725565b60405180910390fd5b60004290508083600401601c6101000a81548163ffffffff021916908363ffffffff1602179055507f30644e72e131a029b85045b68181585d2833e84879b9709143e1f593f0000001826104959190611745565b856104a09190611787565b8360030181905550505050505050565b60008060016000848152602001908152602001600020905060008160040160149054906101000a900463ffffffff1663ffffffff1611610525576040517f08c379a000000000000000000000000000000000000000000000000000000000815260040161051c9061183c565b60405180910390fd5b8060050160009054906101000a900460ff16156105465760039150506105ed565b8060040160149054906101000a900463ffffffff1663ffffffff1642116105715760009150506105ed565b600081600401601c9054906101000a900463ffffffff1663ffffffff161461059d5760029150506105ed565b8060040160189054906101000a900463ffffffff168160040160149054906101000a900463ffffffff166105d1919061185c565b63ffffffff1642116105e75760019150506105ed565b60049150505b919050565b611ee381565b611ebb81565b60005481565b60016020528060005260406000206000915090508060000154908060010154908060020154908060030154908060040160009054906101000a900473ffffffffffffffffffffffffffffffffffffffff16908060040160149054906101000a900463ffffffff16908060040160189054906101000a900463ffffffff169080600401601c9054906101000a900463ffffffff16908060050160009054906101000a900460ff16908060060180546106ba906118c3565b80601f01602080910402602001604051908101604052809291908181526020018280546106e6906118c3565b80156107335780601f1061070857610100808354040283529160200191610733565b820191906000526020600020905b81548152906001019060200180831161071657829003601f168201915b505050505090508a565b6001600481111561075157610750610e70565b5b61075a876104b0565b600481111561076c5761076b610e70565b5b146107ac576040517f08c379a00000000000000000000000000000000000000000000000000000000081526004016107a390611966565b60405180910390fd5b6000339050600060016000898152602001908152602001600020905060008160070160008473ffffffffffffffffffffffffffffffffffffffff1673ffffffffffffffffffffffffffffffffffffffff1681526020019081526020016000209050600015158160000160009054906101000a900460ff16151514610865576040517f08c379a000000000000000000000000000000000000000000000000000000000815260040161085c906119f8565b60405180910390fd5b6000600360009054906101000a900473ffffffffffffffffffffffffffffffffffffffff1673ffffffffffffffffffffffffffffffffffffffff1663dd725dc3858560040160149054906101000a900463ffffffff166040518363ffffffff1660e01b81526004016108d8929190611a18565b602060405180830381865afa1580156108f5573d6000803e3d6000fd5b505050506040513d601f19601f820116820180604052508101906109199190611a85565b6bffffffffffffffffffffffff169050600260009054906101000a900473ffffffffffffffffffffffffffffffffffffffff1673ffffffffffffffffffffffffffffffffffffffff1663c542c93b8e8e8e6040518061012001604052808f81526020018e81526020018d81526020018c81526020018b8152602001878152602001611ee38152602001611ebb815260200189600101548152506040518563ffffffff1660e01b81526004016109d19493929190611cdf565b602060405180830381865afa1580156109ee573d6000803e3d6000fd5b505050506040513d601f19601f82011682018060405250810190610a129190611d52565b610a51576040517f08c379a0000000000000000000000000000000000000000000000000000000008152600401610a4890611df1565b60405180910390fd5b7f30644e72e131a029b85045b68181585d2833e84879b9709143e1f593f000000180610a8057610a7f611616565b5b89600160008d81526020019081526020016000206002015409600160008c81526020019081526020016000206002018190555060018260000160006101000a81548160ff021916908315150217905550888260010181905550808260020181905550428260030160006101000a81548163ffffffff021916908363ffffffff160217905550897edd81174d8f34c3e9c3a91fd69ca49877705de5ee2eabf0f84cf55ec6c900c689898989604051610b3a9493929190611e11565b60405180910390a250505050505050505050505050565b60006001905060005b60ff8163ffffffff161015610bf8576001808263ffffffff1685901c1603610bb1577f30644e72e131a029b85045b68181585d2833e84879b9709143e1f593f000000180610bab57610baa611616565b5b84830991505b7f30644e72e131a029b85045b68181585d2833e84879b9709143e1f593f000000180610be057610bdf611616565b5b84850993508080610bf090611e56565b915050610b5a565b5092915050565b7f30644e72e131a029b85045b68181585d2833e84879b9709143e1f593f000000181565b6000806000815480929190610c3790611e82565b919050555060006001600080548152602001908152602001600020905060008642610c629190611eca565b905060008890506000548360000181905550600083600401601c6101000a81548163ffffffff021916908363ffffffff160217905550818360040160146101000a81548163ffffffff021916908363ffffffff160217905550808360040160186101000a81548163ffffffff021916908363ffffffff16021790555086836001018190555060018360020181905550338360040160006101000a81548173ffffffffffffffffffffffffffffffffffffffff021916908373ffffffffffffffffffffffffffffffffffffffff16021790555060008360050160006101000a81548160ff0219169083151502179055508585846006019182610d649291906120b5565b50866000547f9a610d5c3d09c4c1d3cc7a975e49a870297bbb0b8026d0009dc034be6fb792ba60405160405180910390a3600054935050505095945050505050565b6000604051905090565b600080fd5b600080fd5b6000819050919050565b610dcd81610dba565b8114610dd857600080fd5b50565b600081359050610dea81610dc4565b92915050565b600080600060608486031215610e0957610e08610db0565b5b6000610e1786828701610ddb565b9350506020610e2886828701610ddb565b9250506040610e3986828701610ddb565b9150509250925092565b600060208284031215610e5957610e58610db0565b5b6000610e6784828501610ddb565b91505092915050565b7f4e487b7100000000000000000000000000000000000000000000000000000000600052602160045260246000fd5b60058110610eb057610eaf610e70565b5b50565b6000819050610ec182610e9f565b919050565b6000610ed182610eb3565b9050919050565b610ee181610ec6565b82525050565b6000602082019050610efc6000830184610ed8565b92915050565b610f0b81610dba565b82525050565b6000602082019050610f266000830184610f02565b92915050565b6000819050919050565b610f3f81610f2c565b82525050565b600073ffffffffffffffffffffffffffffffffffffffff82169050919050565b6000610f7082610f45565b9050919050565b610f8081610f65565b82525050565b600063ffffffff82169050919050565b610f9f81610f86565b82525050565b60008115159050919050565b610fba81610fa5565b82525050565b600081519050919050565b600082825260208201905092915050565b60005b83811015610ffa578082015181840152602081019050610fdf565b60008484015250505050565b6000601f19601f8301169050919050565b600061102282610fc0565b61102c8185610fcb565b935061103c818560208601610fdc565b61104581611006565b840191505092915050565b600061014082019050611066600083018d610f02565b611073602083018c610f02565b611080604083018b610f02565b61108d606083018a610f36565b61109a6080830189610f77565b6110a760a0830188610f96565b6110b460c0830187610f96565b6110c160e0830186610f96565b6110cf610100830185610fb1565b8181036101208301526110e28184611017565b90509b9a5050505050505050505050565b600080fd5b7f4e487b7100000000000000000000000000000000000000000000000000000000600052604160045260246000fd5b61113082611006565b810181811067ffffffffffffffff8211171561114f5761114e6110f8565b5b80604052505050565b6000611162610da6565b905061116e8282611127565b919050565b600067ffffffffffffffff82111561118e5761118d6110f8565b5b602082029050919050565b600080fd5b60006111b16111ac84611173565b611158565b905080602084028301858111156111cb576111ca611199565b5b835b818110156111f457806111e08882610ddb565b8452602084019350506020810190506111cd565b5050509392505050565b600082601f830112611213576112126110f3565b5b600261122084828561119e565b91505092915050565b600067ffffffffffffffff821115611244576112436110f8565b5b602082029050919050565b600061126261125d84611229565b611158565b9050806040840283018581111561127c5761127b611199565b5b835b818110156112a5578061129188826111fe565b84526020840193505060408101905061127e565b5050509392505050565b600082601f8301126112c4576112c36110f3565b5b60026112d184828561124f565b91505092915050565b60008060008060008060008060006101c08a8c0312156112fd576112fc610db0565b5b600061130b8c828d016111fe565b995050604061131c8c828d016112af565b98505060c061132d8c828d016111fe565b97505061010061133f8c828d01610ddb565b9650506101206113518c828d01610ddb565b9550506101406113638c828d01610ddb565b9450506101606113758c828d01610ddb565b9350506101806113878c828d01610ddb565b9250506101a06113998c828d01610ddb565b9150509295985092959850929598565b600080604083850312156113c0576113bf610db0565b5b60006113ce85828601610ddb565b92505060206113df85828601610ddb565b9150509250929050565b600080fd5b60008083601f840112611404576114036110f3565b5b8235905067ffffffffffffffff811115611421576114206113e9565b5b60208301915083600182028301111561143d5761143c611199565b5b9250929050565b6000806000806000608086880312156114605761145f610db0565b5b600061146e88828901610ddb565b955050602061147f88828901610ddb565b945050604061149088828901610ddb565b935050606086013567ffffffffffffffff8111156114b1576114b0610db5565b5b6114bd888289016113ee565b92509250509295509295909350565b7f507269766174652d566f74696e673a3a636c6f736520706f6c6c3a20706f6c6c60008201527f206f6e6c792063616e20626520636c6f7365642069662069742069732073756360208201527f636565646564206f722061637469766500000000000000000000000000000000604082015250565b600061154e605083610fcb565b9150611559826114cc565b606082019050919050565b6000602082019050818103600083015261157d81611541565b9050919050565b7f746f74616c566f746520616e6420746f74616c52616e646f6d206d757374206d60008201527f6f64756c65205100000000000000000000000000000000000000000000000000602082015250565b60006115e0602783610fcb565b91506115eb82611584565b604082019050919050565b6000602082019050818103600083015261160f816115d3565b9050919050565b7f4e487b7100000000000000000000000000000000000000000000000000000000600052601260045260246000fd5b7f4e487b7100000000000000000000000000000000000000000000000000000000600052601160045260246000fd5b600061167f82610dba565b915061168a83610dba565b92508261169a57611699611616565b5b828204905092915050565b60006116b082610dba565b91506116bb83610dba565b92508282039050818111156116d3576116d2611645565b5b92915050565b7f646563727970742077726f6e6700000000000000000000000000000000000000600082015250565b600061170f600d83610fcb565b915061171a826116d9565b602082019050919050565b6000602082019050818103600083015261173e81611702565b9050919050565b600061175082610dba565b915061175b83610dba565b925082820261176981610dba565b915082820484148315176117805761177f611645565b5b5092915050565b600061179282610f2c565b915061179d83610f2c565b92508282039050818112600084121682821360008512151617156117c4576117c3611645565b5b92915050565b7f507269766174652d566f74696e673a3a73746174653a20706f6c6c206e6f742060008201527f657869737465642e000000000000000000000000000000000000000000000000602082015250565b6000611826602883610fcb565b9150611831826117ca565b604082019050919050565b6000602082019050818103600083015261185581611819565b9050919050565b600061186782610f86565b915061187283610f86565b9250828201905063ffffffff81111561188e5761188d611645565b5b92915050565b7f4e487b7100000000000000000000000000000000000000000000000000000000600052602260045260246000fd5b600060028204905060018216806118db57607f821691505b6020821081036118ee576118ed611894565b5b50919050565b7f507269766174652d566f74696e673a3a766f746520706f6c6c3a20706f6c6c2060008201527f697320636c6f7365642e00000000000000000000000000000000000000000000602082015250565b6000611950602a83610fcb565b915061195b826118f4565b604082019050919050565b6000602082019050818103600083015261197f81611943565b9050919050565b7f507269766174652d566f74696e673a3a766f746520706f6c6c3a20766f74657260008201527f20616c726561647920766f746564000000000000000000000000000000000000602082015250565b60006119e2602e83610fcb565b91506119ed82611986565b604082019050919050565b60006020820190508181036000830152611a11816119d5565b9050919050565b6000604082019050611a2d6000830185610f77565b611a3a6020830184610f96565b9392505050565b60006bffffffffffffffffffffffff82169050919050565b611a6281611a41565b8114611a6d57600080fd5b50565b600081519050611a7f81611a59565b92915050565b600060208284031215611a9b57611a9a610db0565b5b6000611aa984828501611a70565b91505092915050565b600060029050919050565b600081905092915050565b6000819050919050565b611adb81610dba565b82525050565b6000611aed8383611ad2565b60208301905092915050565b6000602082019050919050565b611b0f81611ab2565b611b198184611abd565b9250611b2482611ac8565b8060005b83811015611b55578151611b3c8782611ae1565b9650611b4783611af9565b925050600181019050611b28565b505050505050565b600060029050919050565b600081905092915050565b6000819050919050565b600081905092915050565b611b9181611ab2565b611b9b8184611b7d565b9250611ba682611ac8565b8060005b83811015611bd7578151611bbe8782611ae1565b9650611bc983611af9565b925050600181019050611baa565b505050505050565b6000611beb8383611b88565b60408301905092915050565b6000602082019050919050565b611c0d81611b5d565b611c178184611b68565b9250611c2282611b73565b8060005b83811015611c53578151611c3a8782611bdf565b9650611c4583611bf7565b925050600181019050611c26565b505050505050565b600060099050919050565b600081905092915050565b6000819050919050565b6000602082019050919050565b611c9181611c5b565b611c9b8184611c66565b9250611ca682611c71565b8060005b83811015611cd7578151611cbe8782611ae1565b9650611cc983611c7b565b925050600181019050611caa565b505050505050565b600061022082019050611cf56000830187611b06565b611d026040830186611c04565b611d0f60c0830185611b06565b611d1d610100830184611c88565b95945050505050565b611d2f81610fa5565b8114611d3a57600080fd5b50565b600081519050611d4c81611d26565b92915050565b600060208284031215611d6857611d67610db0565b5b6000611d7684828501611d3d565b91505092915050565b7f507269766174652d566f74696e673a3a766f746520706f6c6c3a2070726f6f6660008201527f20697320696e636f726563740000000000000000000000000000000000000000602082015250565b6000611ddb602c83610fcb565b9150611de682611d7f565b604082019050919050565b60006020820190508181036000830152611e0a81611dce565b9050919050565b6000608082019050611e266000830187610f02565b611e336020830186610f02565b611e406040830185610f02565b611e4d6060830184610f02565b95945050505050565b6000611e6182610f86565b915063ffffffff8203611e7757611e76611645565b5b600182019050919050565b6000611e8d82610dba565b91507fffffffffffffffffffffffffffffffffffffffffffffffffffffffffffffffff8203611ebf57611ebe611645565b5b600182019050919050565b6000611ed582610dba565b9150611ee083610dba565b9250828201905080821115611ef857611ef7611645565b5b92915050565b600082905092915050565b60008190508160005260206000209050919050565b60006020601f8301049050919050565b600082821b905092915050565b600060088302611f6b7fffffffffffffffffffffffffffffffffffffffffffffffffffffffffffffffff82611f2e565b611f758683611f2e565b95508019841693508086168417925050509392505050565b6000819050919050565b6000611fb2611fad611fa884610dba565b611f8d565b610dba565b9050919050565b6000819050919050565b611fcc83611f97565b611fe0611fd882611fb9565b848454611f3b565b825550505050565b600090565b611ff5611fe8565b612000818484611fc3565b505050565b5b8181101561202457612019600082611fed565b600181019050612006565b5050565b601f8211156120695761203a81611f09565b61204384611f1e565b81016020851015612052578190505b61206661205e85611f1e565b830182612005565b50505b505050565b600082821c905092915050565b600061208c6000198460080261206e565b1980831691505092915050565b60006120a5838361207b565b9150826002028217905092915050565b6120bf8383611efe565b67ffffffffffffffff8111156120d8576120d76110f8565b5b6120e282546118c3565b6120ed828285612028565b6000601f83116001811461211c576000841561210a578287013590505b6121148582612099565b86555061217c565b601f19841661212a86611f09565b60005b828110156121525784890135825560018201915060208501945060208101905061212d565b8683101561216f578489013561216b601f89168261207b565b8355505b6001600288020188555050505b5050505050505056fea2646970667358221220061e85b8ac1f99bd67f256118af93040597ddfa139ddd90e85289c5dc1af4bf464736f6c63430008110033",
  "linkReferences": {},
  "deployedLinkReferences": {}
}